:03000000020008F3
:0D006100E4F521F522E4F523F524754100B6
:0300770002000381
:0500030012045380FE11
:10007A00C00CE581F50C2406F5817A007B00A80CFA
:10008A0008E4F608F6A80C08C3E6942008E69400EB
:10009A0040030201BAE50C2405F8E4F608F6A80CB8
:1000AA0008A90C090909E6F708E65403A2E0C713F0
:1000BA00C713A2E0C713C713C709F77C007D00C3A3
:1000CA00EC9440ED940040030201A6A80C0808082D
:1000DA00EC26FEED0836FFEE2449F582EF3436F5BC
:1000EA0083E493FE7F001EBEFF011FE4BE0C04BF23
:1000FA000001047003020194E50C2405F886060841
:10010A00E6C4CEC4540F6ECE540FCE6ECE8E21C42A
:10011A0054F0C521C4C5216521C52154F0C5216506
:10012A0021F5228A06EBC423CEC423541F6ECE5473
:10013A001FCE6ECE8E23C40354F8C523C403C52331
:10014A006523C52354F8C5236523F524E50C240546
:10015A00F88606AF21EEC39FC40354F8FE8E258AA3
:10016A0006AF23EEC39FC40354F8FE8E267827E613
:10017A0054F0F67827E6540FF67528A975293E75C6
:10018A002A80752B0075410180260CBC00010DE503
:10019A000C2405F8A60408A6050200C9A80C08063E
:1001AA00B600020806A80C08860208860302008F19
:1001BA00850C81D00C22C00C85810C0581058175C6
:1001CA004101AA23AB2474082523FCE43524FDC38A
:1001DA00EA9CEB9D400302044DAC21AD228A06EB5A
:1001EA005403A2E0CE13CE13A2E0CE13CE13CEFF59
:1001FA00C006C00774102521FEE43522FFC3EC9E19
:10020A00ED9FD007D0064003020445C002C003ECAC
:10021A002EFAED3FFBEA2449F582EB3436F583E406
:10022A0093FA7B00A80C08EA24FFF6EB34FF08F6E1
:10023A00A80C08E4B6060508B6000104D003D002EB
:10024A00702AA80C08B6080708B600030202DDA83F
:10025A000C08B60A0708B60003020344A80C08B63D
:10026A000E0708B600030203A9020436C006C00737
:10027A00E54175F007A4FE2425F8A90C09A704AFE7
:10028A0021A90C09E7C39FC40354F8F6EE2425FEFE
:10029A0004F8A90C09A702AF23A90C09E7C39FC454
:1002AA000354F8F674022EF8E654F04401F6740288
:1002BA002EF8E6540FF674032EF8767908763E087F
:1002CA007680181874062EF876030541D007D006F2
:1002DA00020436C006C007E54175F007A4FE2425CE
:1002EA00F8A90C09A704AF21A90C09E7C39FC40305
:1002FA0054F8F6EE2425FE04F8A90C09A702AF2348
:10030A00A90C09E7C39FC40354F8F674022EF8E651
:10031A0054F0F674022EF8E6540F4410F674032EC5
:10032A00F8768908763E087680181874062EF876CC
:10033A00030541D007D006020436C006C007E541CE
:10034A0075F007A4FE2425F8A90C09A704AF21A972
:10035A000C09E7C39FC40354F8F6EE2425FE04F8FB
:10036A00A90C09A702AF23A90C09E7C39FC4035428
:10037A00F8F674022EF8E654F0F674022EF8E654F3
:10038A000FF674032EF8769908763E0876801818C8
:10039A0074062EF8760A0541D007D006020436C044
:1003AA0002C003C004C005C006C007C002C0038C57
:1003BA00828D83122DBF15811581D007D006D005F5
:1003CA00D004D003D00292004062C006C007E541C3
:1003DA0075F007A4FE2425F8A90C09A704AF21A9E2
:1003EA000C09E7C39FC40354F8F6EE2425FE04F86B
:1003FA00A90C09A702AF23A90C09E7C39FC4035498
:10040A00F8F674022EF8E654F0F674022EF8E65462
:10041A000FF674032EF876B908763E087680181817
:10042A0074062EF876000541D007D0067404B5414B
:10043A000280100CBC00010D0201FA0ABA00010B7D
:10044A000201D0850C81D00C22C00CE581F50C2468
:10045A0004F5811206E01206F81206EB12083512AC
:10046A0007CB12084B122CAF12007A1201C01230BD
:10047A0057852582C0261231191581758201120805
:10048A002C758201120787A80C080808E4F608F6FA
:10049A00A80C080808C3E6940808E694004003027A
:1004AA000582A80C08E4F608F6A80C08C3E694101E
:1004BA0008E694004003020574A80C080808E5231E
:1004CA0026FEE52408365403A2E0CE13CE13A2E09A
:1004DA00CE13CE13CEFFA80C08E52126FAE5220892
:1004EA0036FBEA2EFEEB3FFFEE2449F582EF343667
:1004FA00F583E493FA1ABA06005037EA75F008A4AD
:10050A002449FE743E35F0FF7A80A80C080808E6F4
:10051A00C40354F8FBA80C08E6C40354F8F582C0D7
:10052A0006C007C002C003121FF6E58124FCF5814C
:10053A00802CA80C080808E6C40354F8FAA80C088A
:10054A00E6C40354F8F5827449C0E0743EC0E0740E
:10055A0080C0E0C002121FF6E58124FCF581A80CD8
:10056A000806B6000208060204B3A80C0808080622
:10057A00B60002080602049A90002575F040120D92
:10058A00AA50031201C0C04190002575F040122CF8
:10059A00571581E54114FAC002742CC0E07400C0FA
:1005AA00E07440C0E090002575F0401213DCE5814C
:1005BA0024FCF581C04190002575F040121FAF154B
:1005CA00817827E654F0F67827E6540FF612097573
:1005DA00AA82AB83BA4C05BB0002802ABA5005BB7B
:1005EA000002802CBA5105BB00028008BA5727BB0B
:1005FA00002480087827E6440FF6801A7827E65404
:10060A00F04401F680107827E6540F4410F680066D
:10061A007827E644F0F675820012082C7A01C3EABC
:10062A00954140030206D1EA75F007A4FB2425FC94
:10063A007D007E40C002C003C004C005C006900011
:10064A002575F040120ACF158115811581D003D086
:10065A00029200506EEB2425F82406F9E7FC30E1FB
:10066A000612322602046FEC20E258E804F9E7C4C5
:10067A0023541F7D002523FCED3524FDE6C42354B5
:10068A001F7F002521F582EF3522F583C002C003C2
:10069A00C004C005122EEB15811581D003EB242B63
:1006AA00F8860374044BF6122D80AB82D002EB60FD
:1006BA000CC002122D801232D2D002800612329B56
:1006CA0002046F0A02062890002112070C02048510
:1006DA00850C81D00C22539ADFA2AFE433F452A8DE
:1006EA002243F32843FD1443FE0275FF182253BE2A
:1006FA00FBE5BE30E6FB53C6B8E5C620E6FB43BEC3
:10070A000422AA82AB831ABAFF011BC3E49A74803B
:10071A008BF063F08095F0500F7CB07D041CBCFF19
:10072A00011DEC4D70F780DE22D28202083FAA82B8
:10073A00C2828A8202083FC00C85810CAA82A80C58
:10074A0018181874B026F582C002120738D002743D
:10075A000F5AF582C002120738D002EAC4540FFABF
:10076A00740F5A2410F582120738D00C22AA827408
:10077A003F5AF5F0744045F0F582020738AA8274B0
:10078A00015AF5F074A645F0F582020738AA827B71
:10079A0000BB0900502AC002C003C00375820012C0
:1007AA0007411581D003D0027C848A82C002C0032B
:1007BA00C004120733D004D003D002DCED0B80D181
:1007CA0022C29190000112070CD291C2847582E272
:1007DA001207387582241207387582811207387514
:1007EA0082601207387582E612073875820012078E
:1007FA003875822F1207387582A11207387582AFB1
:10080A001207387582A4120738758200120787D238
:10081A0084758200120777C2847582FF120797D205
:10082A008422E582FAB4010092842275860075C298
:10083A00AA75C530228582C1E58630E1FB5386FD63
:10084A00222253FD3D53FE034380C24390FC7A00AB
:10085A007B00BB08004003020971EBFC24F84057F7
:10086A00EB2B2B9008717302088902088B020893FC
:10087A0002089B0208A30208AB0208B30208BB8065
:10088A003643FD025380FD802E43FE045390FB80C5
:10089A002643FE085390F7801E43FE105390EF80C4
:1008AA001643FE205390DF800E43FE405390BF80D4
:1008BA000643FE8053907FAD807E00EDF4FDEEF49A
:1008CA00FEED30E1027C01AD907E00EDF4FDEEF428
:1008DA00FEED30E2027C02AD907E00EDF4FDEEF416
:1008EA00FEED30E3027C03AD907E00EDF4FDEEF404
:1008FA00FEED30E4027C04AD907E00EDF4FDEEF4F2
:10090A00FEED30E5027C05AD907E00EDF4FDEEF4DF
:10091A00FEED30E6027C06AD907E00EDF4FDEEF4CD
:10092A00FEED30E7027C07AD807E00EDF4FDEEF4CB
:10093A00FEED30E6027C08AD807E00EDF4FDEEF4BB
:10094A00FEED30E7027C09ECB503028014EA75F08B
:10095A000AA42C9035F993FC3395E0FD8C828D83A3
:10096A00220B8B0202085C9000002212084CAA8219
:10097A00AB83C002C00312084CAC82AD83D003D053
:10098A0002EAB50406EBB50502800D12084CAC82EA
:10099A00AD838C028D0380DA53FD3D53FE03438001
:0909AA00C24390FC8A828B832277
:1035F90000004F4B4E4D0150000000005947432039
:103609003C2C033E000000515745525455490000D7
:10361900000041534446484A0000000000825A58BD
:1036290056420000000000008384858600000000E7
:10363900000000025E8700000000000000000A4C44
:1009B300C00C85810C05810581AA82BA8000500A8A
:1009C300A80C181818B640004003C38071EAC4236A
:1009D300541FFAA80C181818E6C423541FF6E50C84
:1009E30024FAF88603088604088605A80C18181844
:1009F30086067F00EE2523FEEF3524FFA80C08A60C
:100A030006EF5403A2E0C613C613A2E0C613C6132F
:100A1300C608F67E00EA2521FAEE3522FEA80C0868
:100A2300EA26FAEE0836FEEA2449F582EE3436F574
:100A330083E493FA8B828C838DF01235C0D3850CBB
:100A430081D00C22C00C85810CAA82AB83E50C24D7
:100A5300F6F8C3E69A08E664808BF063F08095F0BD
:100A63004066E50C24FAF8E62AFA08E63BFBE50CB7
:100A730024F6F8C3E69A08E664808BF063F0809569
:100A8300F05045E50C24F4F8E50C24FCF9C3E69793
:100A930008E664800987F063F08095F0402AE50C4E
:100AA30024FCF8E50C24F8F9E726FA09E70836FBF5
:100AB300E50C24F4F8C3E69A08E664808BF063F04F
:100AC3008095F05003D38001C3D00C22C00C8581E4
:100AD3000CC082C083C0F0E581240FF581E50C24AE
:100AE300FBF88605088606088607E50C2404F874D7
:100AF300012DF6E43E08F608A607E50C2404F88663
:100B0300820886830886F01235D9FAE50C2407F8A3
:100B1300A6020876008D828E838FF01235D9FCE50C
:100B23000C240CF8A604087600A80C08E50C24098C
:100B3300F9740126F7E4083609F70809E6F7E50C26
:100B43002409F886820886830886F01235D9FBE5E6
:100B53000C240EF8A603087600A80C0886820886E3
:100B6300830886F01235D9FC7A00C005C006C00799
:100B7300E50C2407F8E6C0E008E6C0E0E50C240C29
:100B8300F8E6C0E008E6C0E07408C0E0E4C0E07442
:100B930008C0E0E4C0E0E50C240EF8E6C0E008E697
:100BA300C0E08C828A83120A4792D5E58124F6F548
:100BB30081D007D006D005A2D592005004D3020DF0
:100BC300A4E50C2404F886820886830886F012358F
:100BD300D9FA7B008D828E838FF01235D9FCC00544
:100BE300C006C0077D0074072CFCE43DFDE50C2422
:100BF30009F886820886830886F01235D9FEE50C4B
:100C0300240EF8A606087600A80C088682088683B8
:100C13000886F01235D9FE7F00C005C006C007C0A4
:100C230002C003C004C0057408C0E0E4C0E0740857
:100C3300C0E0E4C0E0E50C240EF8E6C0E008E6C03E
:100C4300E08E828F83120A4792D5E58124F6F581DF
:100C5300D007D006D005A2D59200D007D006D00584
:100C6300300004D3020DA4E50C2404F88682088620
:100C7300830886F01235D9FA7B0074072AFAE43B1D
:100C8300FB8D828E838FF01235D9FCC005C006C060
:100C9300077D00E50C2409F886820886830886F020
:100CA3001235D9FEE50C240EF8A606087600A80C2A
:100CB3000886820886830886F01235D9FE7F00C035
:100CC30005C006C007C002C003C004C0057408C045
:100CD300E0E4C0E07408C0E0E4C0E0E50C240EF8F2
:100CE300E6C0E008E6C0E08E828F83120A4792D501
:100CF300E58124F6F581D007D006D005A2D5920070
:100D0300D007D006D005300004D3020DA4E50C248F
:100D130004F886820886830886F01235D9FA7B00A8
:100D230074072AFAE43BFB8D828E838FF01235D948
:100D3300FD7C0074072DFDE43CFCE50C2409F886DA
:100D4300820886830886F01235D9FEE50C240EF856
:100D5300A606087600A80C0886820886830886F013
:100D63001235D9FE7F00C002C003C005C004740859
:100D7300C0E0E4C0E07408C0E0E4C0E0E50C240E89
:100D8300F8E6C0E008E6C0E08E828F83120A47923D
:100D9300D5E58124F6F581A2D592005003D38001D5
:100DA300C3850C81D00C22C00C85810CC082C0830A
:100DB300C0F0E5812410F581A80C0886820886839B
:100DC3000886F01235D9FD7E00A80C08740226FFB0
:100DD300E40836FA0886038F828A838BF01235D9AA
:100DE300540F30E30244F0FF3395E0FAEF2DFDEAB0
:100DF3003EFEE50C2404F8A60508A606A80C087414
:100E03000126FCE40836FD0886068C828D838EF06D
:100E13001235D9FFE50C240DF8A607087600A80CB7
:100E230008740226FBE40836FA0886078B828A8355
:100E33008FF01235D9C4540F30E30244F0FB3395DD
:100E4300E0FAE50C240DF8EB26FBEA0836FAE50C8C
:100E53002406F8A60308A602AF21E522C40354F82A
:100E6300CFC403CF6FCF54F8CF6FFAE50C2404F847
:100E7300E62FFF08E63AFAE50C2408F8A60708A6C9
:100E830002AF23E524C40354F8CFC403CF6FCF5478
:100E9300F8CF6FFAE50C2406F8E62FFF08E63AFAD6
:100EA300E50C240AF8A60708A602E50C2408F88630
:100EB3000708E6C423CFC423541F6FCF541FCF6F3B
:100EC300CF30E40244E0E50C240CF8A607E50C243B
:100ED3000AF8860208E6C423CAC423541F6ACA5404
:100EE3001FCA6ACA30E40244E0C002C004C005C09D
:100EF30006E50C2406F8E6C0E008E6C0E0E50C24AD
:100F030004F8E6C0E008E6C0E07440C0E0E4C0E0F6
:100F13007480C0E0E4C0E0E4C0E0C0E090000012F0
:100F23000A4792D5E58124F6F581D006D005D00491
:100F3300D002A2D59200400302106CC004C005C0C9
:100F430006E50C2404F8740826FBE40836FCC0020A
:100F5300C004C005C006E50C2406F8E6C0E008E6B8
:100F6300C0E0C003C0047440C0E0E4C0E07480C0CB
:100F7300E0E4C0E0E4C0E0C0E0900000120A479261
:100F8300D5E58124F6F581D006D005D004D002A2A0
:100F9300D59200D006D005D00420000302106CC007
:100FA30004C005C006E50C2406F8740826FBE40813
:100FB30036FCC002C004C005C006C003C004E50C73
:100FC3002404F8E6C0E008E6C0E07440C0E0E4C0F2
:100FD300E07480C0E0E4C0E0E4C0E0C0E090000062
:100FE300120A4792D5E58124F6F581D006D005D0C3
:100FF30004D002A2D59200D006D005D004300069F7
:10100300C004C005C006E50C2406F8740826FBE4FA
:101013000836FCE50C2404F8740826FDE40836FEC3
:10102300C002C004C005C006C003C004C005C0069A
:101033007440C0E0E4C0E07480C0E0E4C0E0E4C019
:10104300E0C0E0900000120A4792D5E58124F6F54E
:1010530081D006D005D004D002A2D59200D006D00C
:1010630005D0043000030213D5E50C2408F808E684
:1010730030E7030213D5E50C2408F8C3E496748221
:101083000886F063F08095F050030213D5E50C2435
:101093000AF808E630E7030213D5E50C240AF8C37F
:1010A300E49674810886F063F08095F05003021390
:1010B300D5C004C005C00674072523FBE43524C44A
:1010C3000354F8CBC403CB6BCB54F8CB6BFCE50CCC
:1010D300240AF88605088606C3ED9BEE9CE433D00C
:1010E30006D005D00460030211B0C004C005C006D9
:1010F300E50C240DF8A602087600E50C240DF8741F
:101103000126FBE408365403A2E0CB13CB13A2E081
:10111300CB13CB13CBFCE50C240CF8E50C240FF913
:10112300E6F7097700E50C240FF8E62BFB08E63C0D
:10113300FCEB2449F582EC3436F583E493FBE4BB02
:10114300010104D006D005D0047049C004C005C015
:1011530006E50C240DF8740126FBE408365403A2BB
:10116300E0CB13CB13A2E0CB13CB13CBFCE50C24C6
:101173000FF8E62BFB08E63CFCEB2449F582EC3444
:1011830036F583E493FBC374069BE433D006D005A2
:10119300D004601974082523F523E43524F5248C41
:1011A300828D838EF0E41235C0D30213D6C004C0FF
:1011B30005C006AB23E524C40354F8CBC403CB6BAF
:1011C300CB54F8CB6BFCE50C240AF886050886069D
:1011D300C3ED9BEE9CD006D005D00440030212AAB7
:1011E300C004C005C006E50C240FF8A6020876006B
:1011F300E50C240FF8E624FFFB08E634FF5403A2B2
:10120300E0CB13CB13A2E0CB13CB13CBFCE50C2425
:101213000CF8E50C240DF9E6F7097700E50C240D2D
:10122300F8E62BFB08E63CFCEB2449F582EC34366C
:10123300F583E493FBE4BB010104D006D005D0049D
:10124300704AC004C005C006E50C240FF8E624FF6D
:10125300FB08E634FF5403A2E0CB13CB13A2E0CB8D
:1012630013CB13CBFCE50C240DF8E62BFB08E63C73
:10127300FCEB2449F582EC3436F583E493FBC37429
:10128300069BE433D006D005D004601BE52324F885
:10129300F523E52434FFF5248C828D838EF0743896
:1012A3001235C0D30213D674072521FBE43522C4BB
:1012B3000354F8CBC403CB6BCB54F8CB6BFCE50CDA
:1012C3002408F88605088606C3EB9DEC9E400302BE
:1012D3001345EA75F040A4FBACF0E50C240CF8864A
:1012E300057E00C00274012DFAE43EFFEA2BFAEFFB
:1012F3003CFFEA2449F582EF3436F583E493FAE4BC
:10130300BA010104D002701C0DBD00010EED2BFBD0
:10131300EE3CFCEB2449F582EC3436F583E493FB95
:1013230024F9501E74102521F521E43522F522A855
:101333000C0886820886830886F0E41235C0D3023F
:1013430013D6AB21E522C40354F8CBC403CB6BCB38
:1013530054F8CB6BFCE50C2408F88605088606C315
:10136300ED9BEE9C506CEA75F040A4FAABF0E50CF3
:10137300240CF886077C00EF24FFFDEC34FFFEED20
:101383002AFDEE3BFEED2449F582EE3436F583E487
:1013930093FDBD0102801C1FBFFF011CEF2AFAEC65
:1013A3003BFBEA2449F582EB3436F583E493FA24D4
:1013B300F9501FE52124F0F521E52234FFF522A899
:1013C3000C0886820886830886F074781235C0D3A9
:1013D3008001C3850C81D00C22C00C85810CC08296
:1013E300C083C0F00581E50C24FBF886050886065A
:1013F300088607E50C24FAF8E50C2404F9E6F7E57A
:101403000C2404F88602E50C2404F816EA604974F7
:10141300062DFAE43EFB8F048A828B838CF012350F
:10142300D9FA20E22AEA30E326C005C006C007C085
:1014330005C006C007A80C0886820886830886F0C4
:10144300121461158115811581D007D006D005745A
:10145300072DFDE43EFE80A7850C81D00C22C00C35
:1014630085810CC082C083C0F005810581E50C2411
:10147300FBF8860508860608860774022DFAE43E03
:10148300FB8F048A828B838CF01235D954F012358A
:10149300C074022DFAE43EFB8F048A828B838CF0A6
:1014A3001235D9540F1235C0A80C088682088683DA
:1014B3000886F0E50C2405F91235D9F78D828E8361
:1014C3008FF0E50C2404F81235D9F6E50C2405F861
:1014D300E50C2404F9C3E796501974022DFCE43E8D
:1014E300FB8F028C828B838AF01235D954F044012E
:1014F3001235C0E50C2405F8E50C2404F9C3E6977E
:10150300501774022DFAE43EFB8F048A828B838C7E
:10151300F01235D9440F1235C074022DFAE43EFBA4
:101523008F048A828B838CF01235D9540F600302A7
:1015330015B6A80C08740126FAE40836FB088604DD
:101543008A828B838CF0E50C2405F81235D9F67466
:10155300012DFBE43EFC8F028B828C838AF0E50C29
:101563002404F81235D9F6E50C2405F8E50C240417
:10157300F9C3E796501974022DFBE43EFC8F028BEE
:10158300828C838AF01235D9540F44101235C0E58A
:101593000C2405F8E50C2404F9C3E69750157402EE
:1015A3002DFDE43EFE8D828E838FF01235D944F0FB
:1015B3001235C0850C81D00C22C00C85810CC082F1
:1015C300C083C0F0E581240EF581A80C088682084B
:1015D30086830886F01235D9FDFE7F00A80C08E546
:1015E3000C2406F9740226F7E4083609F70809E61D
:1015F300F7E50C2406F886820886830886F0123500
:10160300D9540F30E30244F0FA3395E0FBEA2EFAA3
:10161300EB3FFBC374789A74808BF063F08095F092
:10162300402EE50C2406F886020886030886048A01
:10163300828B838CF01235D9540F30E30244F0FAD5
:101643003395E0FBEA2EFEEB3FFF20E7030216D8BB
:10165300A80C08740626FAE40836FB0886048A8276
:101663008B838CF01235D9FA30E04CE50C2406F864
:101673008603088604088605E50C2406F886060812
:1016830086070886028E828F838AF01235D9540F1B
:1016930030E30244F0FEC3E49EFE8B828C838DF024
:1016A300540FC0F0C0E01235D9D0F054F045F0D05B
:1016B300F01235C0021ABAE50C2406F88602088631
:1016C300030886048A828B838CF01235D954F01276
:1016D30035C0021ABAE50C2404FAE50C240CF8A66A
:1016E30002087600087640A80C08E50C2409F97472
:1016F3000126F7E4083609F70809E6F7E50C24099B
:10170300F886820886830886F01235D9FBA80C0870
:10171300740226FFE40836FE0886028F828E838ACF
:10172300F01235D9C4540F30E30244F02BFFA80C58
:1017330008740226FAE40836FB0886048A828B833F
:101743008CF01235D9540F30E30244F02DFDC00262
:10175300C003C004E50C240CF8E6C0E008E6C0E0D2
:1017630008E6C0E0C0078D821209B392D5E5812453
:10177300FCF581D004D003D002A2D592004003022D
:101783001A2AE50C2404F8B60102800DE50C2404A2
:10179300F8E624F94003021A2AC002C003C004E594
:1017A3000C2404FD7E007F40E50C2409F8868208A2
:1017B30086830886F0E50C240CF91235D9F7A80CBA
:1017C30008740226FBE40836FC0886028B828C83AD
:1017D3008AF01235D9C4540F30E30244F0FBE50C10
:1017E300240CF8E50C2406F9EB26F7A80C088682EE
:1017F3000886830886F0E50C240CF91235D9F7A87E
:101803000C08740226FCE40836FA0886038C828AE4
:10181300838BF01235D9540F30E30244F0FCE50C0E
:10182300240CF8EC262407FAC002C003C004C00548
:10183300C006C007E50C2406F8E6C0E08A82120958
:10184300B392D5E58124FCF581D004D003D002A264
:10185300D59200D004D003D002200003021A2AE557
:101863000C2404F8B60102800DE50C2404F8E624E8
:10187300F94003021A2AC002C003C004E50C240481
:10188300FD7E007F40E50C2409F8868208868308E4
:1018930086F0E50C240CF91235D9F7A80C0874026C
:1018A30026FBE40836FC0886028B828C838AF012BE
:1018B30035D9C4540F30E30244F0FBE50C240CF893
:1018C300EB26A80C0808080808082407F6A80C0843
:1018D30086820886830886F0E50C240CF91235D934
:1018E300F7A80C08740226FCE40836FB0886028C71
:1018F300828B838AF01235D9540F30E30244F0FC13
:10190300E50C240CF8EC26FCC002C003C004C0059F
:10191300C006C007E50C2406F8E6C0E08C82120975
:10192300B392D5E58124FCF581D004D003D002A283
:10193300D59200D004D003D002200003021A2AE576
:101943000C2404F8B60102800DE50C2404F8E62407
:10195300F94003021A2AC002C003C004E50C2404A0
:10196300FD7E007F40E50C2409F886820886830803
:1019730086F0E50C240CF91235D9F7A80C0874028B
:1019830026FBE40836FC0886028B828C838AF012DD
:1019930035D9C4540F30E30244F0FBE50C240CF8B2
:1019A300EB262407FAA80C0886820886830886F0AB
:1019B3001235D9FBA80C08E50C240CF9740226F7A0
:1019C300E4083609F70809E6F7E50C240CF88682E3
:1019D3000886830886F01235D9540F30E30244F0A9
:1019E300FC2B2407FBC002C003C004C005C006C013
:1019F30007C0028B821209B392D5E58124FCF581DD
:101A0300D004D003D002A2D59200D004D003D002D8
:101A1300300014E50C2404F8B60102805CE50C24C4
:101A230004F8E624F94052A80C08740626FDE408DD
:101A330036FE0886078D828E838FF01235D9FD30EE
:101A4300E0758A058B068C078A828B838CF01235AE
:101A5300D9540F30E30244F0FAC3E49AFA8D828E2C
:101A6300838FF0540FC0F0C0E01235D9D0F054F09A
:101A730045F0D0F01235C0803EA80C088682088657
:101A8300830886F01235D9FAE50C240CF88603088E
:101A930086040886058B828C838DF01235D9540F0A
:101AA30030E30244F0FB2AFAA80C088682088683F6
:101AB3000886F0EA1235C0A80C08740126FAE40877
:101AC30036FB0886048A828B838CF0E50C2409F8A4
:101AD3001235D9F6E50C2409F8E50C2406F9E6F7E6
:101AE300097700A80C08E50C240CF9740226F7E426
:101AF300083609F70809E6F7E50C240CF88682088E
:101B030086830886F01235D9C4540F30E30244F0BB
:101B1300FD3395E0FEE50C2406F8ED26FDEE0836D0
:101B2300FEC374389D74808EF063F08095F0403569
:101B3300E50C240CF886050886060886078D828E38
:101B4300838FF01235D9C4540F30E30244F0FD33D0
:101B530095E0FEE50C2406F8ED26FDEE0836FE20A2
:101B6300E703021BEFA80C08740626FDE40836FE03
:101B73000886078D828E838FF01235D9FD30E04EB3
:101B8300E50C240CF88602088603088604E50C2479
:101B93000CF886050886060886078D828E838FF0EB
:101BA3001235D9C4540F30E30244F0FDC3E49DFD64
:101BB3008A828B838CF0C454F0C0F0C0E01235D914
:101BC300D0F0540F45F0D0F01235C0021FA9E50C38
:101BD300240CF886050886060886078D828E838F77
:101BE300F01235D9540F1235C0021FA9C002C00329
:101BF300C004E50C2405FD7E007F40E50C240CF8B1
:101C030086020886030886048A828B838CF0123549
:101C1300D9C4540F30E30244F0FAE50C2409F8E583
:101C23000C2409F9EA26F7A80C088682088683089B
:101C330086F0E50C240CF91235D9F7A80C087402C8
:101C430026FCE40836FB0886028C828B838AF0121A
:101C530035D9540F30E30244F0FCE50C240CF8ECC6
:101C630026FCC002C003C004C005C006C007E50CC3
:101C73002409F8E6C0E08C821209B392D5E58124E9
:101C8300FCF581D004D003D002A2D59200D004D0B9
:101C930003D002200003021F04E50C2405F8B6015B
:101CA30002800DE50C2405F8E624F94003021F0425
:101CB300E50C2405FDE50C240CF8A60508760008C0
:101CC30076408A828B838CF01235D9FDC002C00323
:101CD300C004A80C08740226FEE40836FF08860236
:101CE3008E828F838AF01235D9C4540F30E30244B5
:101CF300F02DFDA80C0886820886830886F012352D
:101D0300D9FAA80C08740226FBE40836FC088606F8
:101D13008B828C838EF01235D9540F30E30244F05A
:101D2300FB2A2407FAC002C003C004E50C240CF804
:101D3300E6C0E008E6C0E008E6C0E0C0058A82121B
:101D430009B392D5E58124FCF581D004D003D002F8
:101D5300A2D59200D004D003D002200003021F04B6
:101D6300E50C2405F8B60102800DE50C2405F8E620
:101D730024F94003021F04E50C2405FDE50C240CA3
:101D8300F8A6050876000876408A828B838CF012C9
:101D930035D9FDC002C003C004A80C08740226FE96
:101DA300E40836FF0886028E828F838AF01235D9C3
:101DB300C4540F30E30244F02D2407FAA80C08861C
:101DC300820886830886F01235D9FBA80C087402B2
:101DD30026FCE40836FD0886068C828D838EF0127D
:101DE30035D9540F30E30244F0FC2BFBC002C0038F
:101DF300C004E50C240CF8E6C0E008E6C0E008E601
:101E0300C0E0C0028B821209B392D5E58124FCF5B0
:101E130081D004D003D002A2D59200D004D003D045
:101E230002200003021F04E50C2405F8B60102801A
:101E33000DE50C2405F8E624F94003021F04E50C24
:101E43002405FDE50C240CF8A60508760008764069
:101E53008A828B838CF01235D9FDC002C003C00483
:101E6300A80C08740226FEE40836FF0886028E8258
:101E73008F838AF01235D9C4540F30E30244F02D16
:101E83002407FAA80C0886820886830886F0123590
:101E9300D9FBA80C08740226FCE40836FD08860664
:101EA3008C828D838EF01235D9540F30E30244F0C7
:101EB300FC2B2407FBC002C003C004E50C240CF870
:101EC300E6C0E008E6C0E008E6C0E0C0028B82128C
:101ED30009B392D5E58124FCF581D004D003D00267
:101EE300A2D59200D004D003D002300014E50C2414
:101EF30005F8B60102806FE50C2405F8E624F940E5
:101F030065A80C08740626FDE40836FE0886078DCE
:101F1300828E838FF01235D9FD20E003021FA9A81A
:101F23000C08740226FAE40836FB0886048A058B3B
:101F3300068C078D828E838FF01235D9C4540F30EF
:101F4300E30244F0FDC3E49DFD8A828B838CF0C4DD
:101F530054F0C0F0C0E01235D9D0F0540F45F0D0A2
:101F6300F01235C080408A828B838CF0E50C240C00
:101F7300F81235D9F6A80C08740226FEE40836FFD9
:101F83000886058E828F838DF01235D9C4540F30A5
:101F9300E30244F0FEE50C240CF8EE26FE8A828B65
:101FA300838CF01235C0850C81D00C22C00C858146
:101FB3000CAA82AB83ACF0A80C18181886058D0602
:101FC3001DEE602CC0058A068B078C0574072AFA60
:101FD300E43BFB8E828F838DF0C002C003C004C03C
:101FE300051215BCD005D004D003D002D00580CE95
:101FF300D00C22C00C85810CAA82A80C181818E6F4
:10200300C423541FFBC0038A821207411581E50CC8
:1020130024FAF886020886030886048A828B838C56
:10202300F01235D9F582C002C003C004120733D0C1
:1020330004D003D00274012AFDE43BFE8C078D8299
:102043008E838FF01235D9F582C002C003C004120B
:102053000733D004D003D00274022AFDE43BFE8C84
:10206300078D828E838FF01235D9F582C002C003AB
:10207300C004120733D004D003D00274032AFDE452
:102083003BFE8C078D828E838FF01235D9F582C08B
:1020930002C003C004120733D004D003D002740477
:1020A3002AFDE43BFE8C078D828E838FF01235D997
:1020B300F582C002C003C004120733D004D003D09A
:1020C3000274052AFDE43BFE8C078D828E838FF01C
:1020D3001235D9F582C002C003C004120733D004FD
:1020E300D003D00274062AFDE43BFE8C078D828E5A
:1020F300838FF01235D9F582C002C003C0041207E2
:1021030033D004D003D00274072AFAE43BFB8A825B
:102113008B838CF01235D9F582120733D00C22C091
:102123000C85810CC082C083C0F0E581240FF5814A
:10213300A80C08740126FDE40836FE0886078D8284
:102143008E838FF0E50C2409F81235D9F6E50C24BB
:1021530009F8E50C2404F9740756F7A80C088682DD
:102163000886830886F0E50C240DF91235D9F7E5C6
:102173000C240DF8E50C2405F9740756F7A80C0890
:10218300E50C240AF9740326F7E4083609F708096D
:10219300E6F7E50C240AF886820886830886F0129F
:1021A30035D9FCA31235D9FAA31235D9FBE50C2492
:1021B30006F874082CF6E43A08F608A603E50C249E
:1021C30004F8E67003022729C005C006C007E50C22
:1021D3002409F8E6C423541FFD0DC005C006C0073B
:1021E300C005E50C240DF886821207411581D0073E
:1021F300D006D005E50C240AF88682088683088673
:10220300F01235D9FDA31235D9FEA31235D9FF8DAE
:10221300828E838FF01235D9FDE50C2404F88606EF
:102223007F007408C39EFEE49FFF8EF005F0ED80EF
:1022330002C313D5F0FBFBE50C2405F8E50C240ED3
:10224300F9E6F7097700E50C240EF8740756FC7DD0
:1022530000EC2449FCED343EFD7A808C828D838A28
:10226300F01235D9FCE50C2406F88682088683082B
:1022730086F01235D9FA8EF005F0EA8002C313D541
:10228300F0FBF45204EC4BF582C005C006C0071204
:102293000733D007D006D005E50C240AF886820858
:1022A30086830886F01235D9FAA31235D9FBA31217
:1022B30035D9FC0ABA00010B8A828B838CF0123564
:1022C300D9FA8EF005F0EA8002C313D5F0FBFAE5E4
:1022D3000C240EF8740126FBE408365303077C0034
:1022E300EB2449FBEC343EFC7D808B828C838DF0A8
:1022F300E50C240DF81235D9F6E50C2406F8740123
:1023030026FCE40836FD0886038C828D838BF0124D
:1023130035D9FC8EF005F0EC8002C313D5F0FBF445
:10232300FCE50C240DF8E65204EC4AF582C005C026
:1023330006C007120733D007D006D005E50C240AE0
:10234300F886820886830886F01235D9FAA31235F7
:10235300D9FBA31235D9FC74022AFAE43BFB8A8227
:102363008B838CF01235D9FA8EF005F0EA8002C324
:1023730013D5F0FBFAE50C240EF8740226FBE408EF
:10238300365303077C00EB2449FBEC343EFC7D8091
:102393008B828C838DF0E50C240DF81235D9F6E58C
:1023A3000C2406F8740226FCE40836FD0886038C28
:1023B300828D838BF01235D9FC8EF005F0EC800210
:1023C300C313D5F0FBF4FCE50C240DF8E65204EC42
:1023D3004AF582C005C006C007120733D007D006EE
:1023E300D005E50C240AF886820886830886F01255
:1023F30035D9FAA31235D9FBA31235D9FC74032AB4
:10240300FAE43BFB8A828B838CF01235D9FA8EF087
:1024130005F0EA8002C313D5F0FBFAE50C240EF8AD
:10242300740326FBE408365303077C00EB2449FBC3
:10243300EC343EFC7D808B828C838DF0E50C240D87
:10244300F81235D9F6E50C2406F8740326FCE408E3
:1024530036FD0886038C828D838BF01235D9FC8E72
:10246300F005F0EC8002C313D5F0FBF4FCE50C247B
:102473000DF8E65204EC4AF582C005C006C0071207
:102483000733D007D006D005E50C240AF886820866
:1024930086830886F01235D9FAA31235D9FBA31225
:1024A30035D9FC74042AFAE43BFB8A828B838CF0D3
:1024B3001235D9FA8EF005F0EA8002C313D5F0FB8A
:1024C300FAE50C240EF8740426FBE40836530307DC
:1024D3007C00EB2449FBEC343EFC7D808B828C83B7
:1024E3008DF0E50C240DF81235D9F6E50C2406F829
:1024F300740426FCE40836FD0886038C828D838BE6
:10250300F01235D9FC8EF005F0EC8002C313D5F040
:10251300FBF4FCE50C240DF8E65204EC4AF582C00A
:1025230005C006C007120733D007D006D005E50C57
:10253300240AF886820886830886F01235D9FAA31E
:102543001235D9FBA31235D9FC74052AFAE43BFBF7
:102553008A828B838CF01235D9FA8EF005F0EA80EB
:1025630002C313D5F0FBFAE50C240EF8740526FB21
:10257300E408365303077C00EB2449FBEC343EFCB0
:102583007D808B828C838DF0E50C240DF81235D978
:10259300F6E50C2406F8740526FCE40836FD0886E7
:1025A300038C828D838BF01235D9FC8EF005F0EC11
:1025B3008002C313D5F0FBF4FCE50C240DF8E652BE
:1025C30004EC4AF582C005C006C007120733D007E2
:1025D300D006D005E50C240AF8868208868308868F
:1025E300F01235D9FAA31235D9FBA31235D9FC74ED
:1025F300062AFAE43BFB8A828B838CF01235D9FAE4
:102603008EF005F0EA8002C313D5F0FBFAE50C2443
:102613000EF8740626FBE408365303077C00EB240C
:1026230049FBEC343EFC7D808B828C838DF0E50C82
:10263300240DF81235D9F6E50C2406F8740626FCA9
:10264300E40836FD0886038C828D838BF01235D91E
:10265300FC8EF005F0EC8002C313D5F0FBF4FCE52F
:102663000C240DF8E65204EC4AF582C005C006C0FE
:1026730007120733D007D006D005E50C240AF886E5
:10268300820886830886F01235D9FAA31235D9FB5E
:10269300A31235D9FC74072AFAE43BFB8A828B83A5
:1026A3008CF01235D9FA8EF005F0EA8002C313D507
:1026B300F0FBFAE50C240EF8740726FBE408365306
:1026C30003077C00EB2449FBEC343EFC7D808B82CA
:1026D3008C838DF0E50C240EF81235D9F6E50C2425
:1026E30006F8740726FCE40836FD0886038C828D01
:1026F300838BF01235D9FC8EF005F0EC8002C31306
:10270300D5F0FBF4FEE50C240EF8E65206EE4AF58E
:1027130082C005C006C007120733D007D006D00514
:10272300D007D006D0058D828E838FF01235D9C4A1
:1027330023541FFDA80C0886820886830886F0129E
:1027430035D9FAC0058A821207411581E50C240A9E
:10275300F886820886830886F01235D9FAA31235E3
:10276300D9FBA31235D9FC8A828B838CF01235D91D
:10277300FAE50C2404F886F005F0EA800225E0D59A
:10278300F0FBFAE50C2405F886047B0074075CFD76
:102793007E00ED2449FDEE343EFE7F808D828E83E4
:1027A3008FF01235D9FDE50C2406F886820886835E
:1027B3000886F01235D9FEE50C2404F886F005F0FE
:1027C300EE800225E0D5F0FBF45205ED4AF582C018
:1027D30003C004120733D004D003E50C240AF8869F
:1027E300820886830886F01235D9FAA31235D9FDFB
:1027F300A31235D9FE0ABA00010D8A828D838EF0A9
:102803001235D9FAE50C2404F886F005F0EA8002C3
:1028130025E0D5F0FBFA74012CFDE43B5305077E5C
:1028230000ED2449FDEE343EFE7F808D828E838F42
:10283300F0E50C240EF81235D9F6E50C2406F874ED
:102843000126FEE40836FF0886058E828F838DF00D
:102853001235D9FEE50C2404F886F005F0EE80026B
:1028630025E0D5F0FBF4FEE50C240EF8E65206EE67
:102873004AF582C003C004120733D004D003E50C29
:10288300240AF886820886830886F01235D9FAA3CB
:102893001235D9FDA31235D9FE74022AFAE43DFD9F
:1028A3008A828D838EF01235D9FAE50C2404F886DA
:1028B300F005F0EA800225E0D5F0FBFA74022CFD66
:1028C300E43B5305077E00ED2449FDEE343EFE7FD5
:1028D300808D828E838FF0E50C240EF81235D9F6A5
:1028E300E50C2406F8740226FEE40836FF08860584
:1028F3008E828F838DF01235D9FEE50C2404F88681
:10290300F005F0EE800225E0D5F0FBF4FEE50C24A3
:102913000EF8E65206EE4AF582C003C004120733EE
:10292300D004D003E50C240AF8868208868308863F
:10293300F01235D9FAA31235D9FDA31235D9FE7495
:10294300032AFAE43DFD8A828D838EF01235D9FA8B
:10295300E50C2404F886F005F0EA800225E0D5F0C2
:10296300FBFA74032CFDE43B5305077E00ED244979
:10297300FDEE343EFE7F808D828E838FF0E50C2446
:102983000EF81235D9F6E50C2406F8740326FEE496
:102993000836FF0886058E828F838DF01235D9FEA7
:1029A300E50C2404F886F005F0EE800225E0D5F06E
:1029B300FBF4FEE50C240EF8E65206EE4AF582C05F
:1029C30003C004120733D004D003E50C240AF886AD
:1029D300820886830886F01235D9FAA31235D9FD09
:1029E300A31235D9FE74042AFAE43DFD8A828D834D
:1029F3008EF01235D9FAE50C2404F886F005F0EAD6
:102A0300800225E0D5F0FBFA74042CFDE43B53056A
:102A1300077E00ED2449FDEE343EFE7F808D828EDD
:102A2300838FF0E50C240EF81235D9F6E50C240655
:102A3300F8740426FEE40836FF0886058E828F8329
:102A43008DF01235D9FEE50C2404F886F005F0EE7E
:102A5300800225E0D5F0FBF4FEE50C240EF8E652E7
:102A630006EE4AF582C003C004120733D004D00334
:102A7300E50C240AF886820886830886F01235D985
:102A8300FAA31235D9FDA31235D9FE74052AFAE447
:102A93003DFD8A828D838EF01235D9FAE50C24042C
:102AA300F886F005F0EA800225E0D5F0FBFA74051C
:102AB3002CFDE43B5305077E00ED2449FDEE343E37
:102AC300FE7F808D828E838FF0E50C240EF8123505
:102AD300D9F6E50C2406F8740526FEE40836FF084B
:102AE30086058E828F838DF01235D9FEE50C240482
:102AF300F886F005F0EE800225E0D5F0FBF4FEE564
:102B03000C240EF8E65206EE4AF582C003C0041206
:102B13000733D004D003E50C240AF88682088683A1
:102B23000886F01235D9FAA31235D9FDA31235D987
:102B3300FE74062AFAE43DFD8A828D838EF01235F7
:102B4300D9FAE50C2404F886F005F0EA800225E0C2
:102B5300D5F0FBFA74062CFDE43B5305077E00ED2C
:102B63002449FDEE343EFE7F808D828E838FF0E517
:102B73000C240EF81235D9F6E50C2406F874062653
:102B8300FEE40836FF0886058E828F838DF01235AA
:102B9300D9FEE50C2404F886F005F0EE800225E06A
:102BA300D5F0FBF4FEE50C240EF8E65206EE4AF5EA
:102BB30082C003C004120733D004D003E50C240AF7
:102BC300F886820886830886F01235D9FAA312356F
:102BD300D9FDA31235D9FE74072AFAE43DFD8A8292
:102BE3008D838EF01235D9FAE50C2404F886F005AE
:102BF300F0EA800225E0D5F0FBFA74072CFCE43BF5
:102C03005304077B00EC2449FCEB343EFB7D808CB2
:102C1300828B838DF01235D9FCE50C2406F87407FA
:102C230026FBE40836FD0886068B828D838EF01220
:102C330035D9FBE50C2404F886F005F0EB8002257A
:102C4300E0D5F0FBF45204EC4AF582120733850C0D
:102C530081D00C22C00C85810CAA82AB83ACF0A876
:102C63000C18181886058D061DEE603DC005740608
:102C73002AFEE43BFF8C058E828F838DF01235D9BB
:102C8300FE5404D00570198A828B838CF0C002C075
:102C930003C004C005122122D005D004D003D00202
:0C2CA30074072AFAE43BFB80BDD00C2231
:103649000202020202020202020202020202020251
:103659000202020202020202020202020202020241
:103669000202020202020202020202020202020231
:103679000202020202020202020202020202020221
:10368900020F010101010101010101010101010112
:1036990001010101010109020101010101010F01FA
:1036A9000101010101010101010101010101010101
:1036B90001010101010901010101010101010102E8
:1036C90002010101010101010101010107010101DA
:1036D90001010101010101010101010101010102D0
:1036E90002010101010102010101010101010102BE
:1036F90002010101010102010101010107010102A8
:10370900020101010101010101010101010101019F
:103719000101010101010102020202020201010289
:1037290002010101010101020F0101070101010269
:10373900020101010101020F02010101010101025E
:103749000201010101010101010101090101010157
:10375900010101010101010101010101020B010244
:10376900020201010101020101010101010101023C
:103779000201010101010202020202010101010229
:1037890002010101010D0101010101010101010113
:103799000101010101010101010101010101010110
:1037A90001010101010101020101010101010101FF
:1037B90001010101010101010101010101010102EF
:1037C90002010101010101010101010101010101DF
:1037D90001010101010101020101010101010101CF
:1037E90001010101010101010109010101010101B8
:1037F90001010101010101010101010101010102AF
:103809000202010101020202020202020101020294
:10381900020202020202020202020202020202027F
:10382900020202020202020202020202020202026F
:103839000202020202020201010202020202020261
:103849000202010101020202020202020101020254
:10385900020202020202020202020202020202023F
:10386900020202020202020202020202020202022F
:103879000202020202020201010202020202020221
:10388900020101010101010101010101010101011E
:103899000101010101010107010101010101010208
:1038A90002010101010101010101010101010102FD
:1038B90002010101010101010101010101010102ED
:1038C90002010101010101010101010101010101DE
:1038D90001010101010101010101010101010102CE
:1038E90002010101010101010101010101010102BD
:1038F90002010101010101010101070101010102A7
:10390900020101010101010F01010101010101018F
:10391900010202020202010201020B0201020F026C
:103929000202020202020101010701010101010271
:10393900020202010101010101010101010101026A
:10394900020101010101010101010101010101015D
:103959000102020202020202010202020202010241
:103969000201010F0102010101010101010101012E
:10397900010101010F01020101010101010101021E
:103989000201010B01010101010101010101010113
:10399900010101010101010101010101010101020D
:1039A90002010101010101010101010101010102FC
:1039B90002010101010102010101010101010102EB
:1039C90002010101010101010101010101010101DD
:1039D90001010101010101010101010101010102CD
:1039E90002010101010101010101010101010102BC
:1039F900020101010B0102010101010101010102A1
:103A0900020202020202020201010202020202028F
:103A1900020202020202020101020202020202027F
:103A2900020202020202020102020202020202026E
:103A3900020202020202020101020202020202025F
:103A4900020202020202020201010202020202024F
:103A5900020202020202020101020202020202023F
:103A6900020202020202020102020202020202022E
:103A7900020202020202020101020202020202021F
:103A8900020B010101010101010101010101010211
:103A99000202010101010101010101020101020208
:103AA9000201010101010101010101010B010102F1
:103AB90002010101010101010101010201010102EA
:103AC9000201010F010101010101010101010102CD
:103AD9000201010101010101010101010F010102BD
:103AE90002010101010102010101010101010101BB
:103AF90001010101010701010101010101010102A6
:103B0900020101010101010101010101010101029A
:103B19000201010101070101010101010101020283
:103B29000201010101010101010101010101020279
:103B390002010101010101010101010F010101025C
:103B4900020102010101010101010101010101015A
:103B5900010101010101010101010101010101024B
:103B69000201010F0101010101010101010101022C
:103B7900020101010101010101010101010101022A
:103B89000201020201010101010101070101010212
:103B9900020101010101010101010101010101020A
:103BA90002010101010101010101010101010102FA
:103BB90002010101010101010101010101010102EA
:103BC90002010202020101010101010101010102D7
:103BD900020B0101010101010101010101010102C0
:103BE9000201010101010101010101010B010102B0
:103BF90002010101010101010101010201010102A9
:103C0900020102020202020202020202020202028C
:103C1900020202020202020201010202020202027D
:103C2900020202020202010102020202020202026D
:103C3900020202020201010202020202020202025D
:103C4900020102020202020202020202020202024C
:103C5900020202020202020201010202020202023D
:103C6900020202020202010102020202020202022D
:103C7900020202020201010202020202020202021D
:103C890002010101010101010101010101010F020B
:103C99000209010101010102010101010101010200
:103CA90002010901010101010101070101010102EB
:103CB90002020202020101010101010101010102E5
:103CC90002070101010101010101020202020202CE
:103CD90002010101010101020101010701010102C2
:103CE90002010101010101010101010101010102B9
:103CF900020202020201010101010701010101029F
:103D09000201010101010101010101010201010198
:103D1900010101010101010101010101010101018A
:103D29000101010101010101010101010101010279
:103D39000202020202010101010101010101010264
:103D49000201010101010101010101010101010159
:103D5900010101010101010101010101010101014A
:103D6900010101010101010101010101010101013A
:103D79000101010102010101010101010101010228
:103D89000201010101010101010101010101010218
:103D99000201010101010101010101010101010208
:103DA90002010101010B01010101010101010101EF
:103DB9000101010101010B010101010101010102DF
:103DC90002020202020901010101010101010102CC
:103DD90002010101010101010107010101010102C2
:103DE90002010101010101010101010101010101B9
:103DF90001010101010101010101010101010F029B
:103E09000202020202020202020202020202020289
:103E19000202020202020202020202020202020279
:103E29000202020202020202020202020202020269
:103E39000202020202020202020202020202020259
:103E4900000000181800000011554455115544553B
:103E5900FEFEF8F0F0E0808080C0E0E0F8F0FEFFC0
:103E6900010307071F3F3FFFFF7F1F0F0F070101D7
:103E7900FECB9FCF9BCF9FFEFECF9FCF9FCF9FFEB5
:103E89003F37FF2FFF37FF3F3F3FFF3FFF3FFF3FD9
:103E9900FFFDC7CDC7E6C6CEFFFDC7CDC7E6C6CE77
:103EA9007EFB999FFBF9FF7EFB999FFBF97F3E3CC7
:103EB9003C7EBB8181BF7E3C3C7EFFFFFFFF7E3C99
:103EC900007CA292928A7C0000000004FE0000009F
:103ED90000C4A2A292928C000044829292926C0039
:103EE9000030282422FE2000004E8A8A8A8A720025
:103EF900007C929292926400000E02C222120E007D
:103F0900006C929292926C00004C929292927C0078
:103F190000C0302C2222FE000082FE9292926C0098
:103F290000384482828244000082FE8282423C0040
:103F39000082FE92929282000082FE121212020008
:103F4900003844829292740000827E101010FE00A4
:103F5900000082FE82000000004282827E0202008E
:103F690000827E10284482000082FE808080C0008A
:103F790080FE04080804FE0080FE04081020FE00EC
:103F8900007C828282827C000082FE2222221C0026
:103F9900007C82A2A242BC000082FE1232528C0036
:103FA900004C929292926400020202FE0202020006
:103FB900007E808080807E000204F84020100E0080
:103FC90002FE40302040FE008042227C888482002C
:103FD900060810E0100806000086C2A2928AC600F0
:103FE900384492AABAA21C000000C0C00000000018
:09006E00E4F508F509F50AF50BAB
:102CAF00C00CE581F50C2404F5817A00A80C080806
:102CBF0008E4F608F6A80C080808C3E6942008E60E
:102CCF0094004003022D7AA80C080808860508E630
:102CDF005403A2E0CD13CD13A2E0CD13CD13CDFE3F
:102CEF008A07A80C08E4F608F6A80C08C3E6944077
:102CFF0008E694005065C007A80C08E62DFF08E60B
:102D0F003EFBEF2449F582EB3436F583E493FB7CED
:102D1F00001BBBFF011CE4BB0E04BC000104D00769
:102D2F00602EC005C0068FF005F07B017C00800689
:102D3F00EB2BFBEC33FCD5F0F7EC3395E0FDFEEB22
:102D4F004208EC4209ED420AEE420B0FD006D005C5
:102D5F00A80C0806B600020806808E8F02A80C0881
:102D6F00080806B600020806022CC4850C81D00C98
:102D7F00227A007B00BB200050338BF005F07C01E2
:102D8F007D008006EC2CFCED33FDD5F0F7ED33958F
:102D9F00E0FEFFE5085204E5095205E50A5206E593
:102DAF000B5207EC4D4E4F60010A0B80C88A8222EE
:102DBF00C00C85810CC082C083E581240AF581A8EF
:102DCF000C08080876007D007E00C3ED9420EE9479
:102DDF00004003022EE4E50C24FCF8E6B5050908D3
:102DEF00E6B5060474018001E4FFE50C2404F8A69F
:102DFF0005EE5403A2E0C613C613A2E0C613C61312
:102E0F00C608F6A80C080808E50C2406F9E6F77CB6
:102E1F00007A00C3EC9440EA94004003022EDCA831
:102E2F000C08E6B5040708E6B5020280028056EFEB
:102E3F006053A80C08080886F005F07A017B008023
:102E4F0006EA2AFAEB33FBD5F0F7E50C2407F8A6D0
:102E5F000208A603EB3395E008F608F6E50C240705
:102E6F00F8E50856F6E5090856F6E50A0856F6E5B8
:102E7F000B0856F6E50C2407F8E608460846084600
:102E8F00B401008051C007E50C2404F8EC26FBEADE
:102E9F000836FFEB2449F582EF3436F583E493FBD4
:102EAF007F001BBBFF011FE4BB0E04BF000104D05A
:102EBF00076012E50C2406F806E50C2406F8A90CA9
:102ECF00090909E6F70CBC00010A022E220DBD000C
:102EDF00010E022DD9C3850C81D00C22C00C858127
:102EEF000CC082C083E581240CF581A80C0808086A
:102EFF0076007D007E00C3ED9420EE940040030227
:102F0F00300FE50C24FCF8E6B5050908E6B5060414
:102F1F0074018001E4FFE50C2404F8A605EE5403C8
:102F2F00A2E0C613C613A2E0C613C613C608F6A8BE
:102F3F000C080808E50C2406F9E6F77C007A00C3B4
:102F4F00EC9440EA94004003023007A80C08E6B561
:102F5F00040708E6B5020280028055EF6052A80C04
:102F6F0008080886F005F07A017B008006EA2AFA45
:102F7F00EB33FBD5F0F7E50C2407F8EAF4F6EBF4A6
:102F8F0008F6E50C2407F8E50C2409F9E6F708091B
:102F9F00E6F7E63395E009F709F7E50C2409F8E6BB
:102FAF00520808E6520908E6520A08E6520B80500A
:102FBF00C007E50C2404F8EC26FBEA0836FFEB24E7
:102FCF0049F582EF3436F583E493FB7F001BBBFF9B
:102FDF00011FE4BB0E04BF000104D0076012E50C13
:102FEF002406F806E50C2406F8A90C090909E6F7EA
:102FFF000CBC00010A022F4E0DBD00010E022F0561
:10300F00850C81D00C227A327B0090001EC002C04A
:10301F000312070C75820112082C75820012082CFE
:10302F00D003D0021ABAFF011BEA4B70DD120975EB
:10303F00E5828583F045F0700E75820112082C75BC
:10304F00820012082C80E62275820112082C7582EC
:10305F00011207877582001207977401C0E0744050
:10306F00C0E07480C0E0E4C0E075820112341DE559
:10307F008124FCF5817410C0E07440C0E07480C0FE
:10308F00E07402C0E075820312341DE58124FCF563
:10309F00817499C0E0743EC0E07480C0E07428C0B1
:1030AF00E0758230121FF6E58124FCF5817479C03A
:1030BF00E0743EC0E07480C0E07428C0E0758240C8
:1030CF00121FF6E58124FCF5817489C0E0743EC0BF
:1030DF00E07480C0E07428C0E0758250121FF6E5DE
:1030EF008124FCF581741AC0E07440C0E07480C084
:1030FF00E07407C0E075820012341DE58124FCF5F1
:10310F008175820012082C023015C00C85810CAA23
:10311F0082758201C00212082C7582011207877511
:10312F008200120797D002C00274A9C0E0743EC09B
:10313F00E07480C0E0A80C181818E6C0E08A82126C
:10314F001FF6E58124FCF581D002A80C181818741D
:10315F001026FBC0027471C0E0743FC0E07480C0E1
:10316F00E0C0038A82121FF6E58124FCF581D002AC
:10317F00EA24F4FBC0027499C0E0743FC0E074808D
:10318F00C0E0A80C181818E6C0E08B82121FF6E5F5
:10319F008124FCF581D002740C2AFBC00274C9C0D3
:1031AF00E0743FC0E07480C0E0A80C181818E6C0A7
:1031BF00E08B82121FF6E58124FCF581D002A80C6A
:1031CF00181818E624F0FB7491C0E0743FC0E07447
:1031DF0080C0E0C0038A82121FF6E58124FCF581CE
:1031EF00A80C181818E6B40100E433FA600274064C
:1031FF00FA742BC0E07440C0E07480C0E0C0027568
:10320F00820312341DE58124FCF5817582001208BA
:10321F002C123015D00C2275820112082C758201E8
:10322F001207877A02EA24FB403DEAC40354F8FBF5
:10323F007C00BC1000502DECC40354F8F582C00282
:10324F00C003C00474F9C0E0743FC0E07480C0E0F4
:10325F00C003121FF6E58124FCF581D004D003D002
:10326F00020C80CE0A80BE7434C0E07440C0E0749B
:10327F0080C0E07403C0E075820612341DE581241E
:10328F00FCF58175820012082C023015758201122F
:10329F00082C7582011207877582001207977439FF
:1032AF00C0E07440C0E07480C0E07403C0E0758279
:1032BF000412341DE58124FCF58175820012082C5F
:1032CF00023015C00CE581F50C240EF581AA82A8F9
:1032DF000C087658E804F97758740228FBC000A848
:1032EF00037620D000740328FBC000A8037643D0D8
:1032FF0000740428FBC000A803764FD00074052883
:10330F00FBC000A8037649D000740628FBC000A8B4
:10331F0003764ED000740728FBC000A8037653D065
:10332F0000740828FBC000A8037620D00074092879
:10333F00FBC000A803764CD000740A28FBC000A87D
:10334F00037645D000740B28FBC000A8037646D047
:10335F0000740C28FBC000A8037654D000740D280D
:10336F00FBC000A8037600D000BA0A0050097620EF
:10337F0074302AFBF7801475F00AEA842430FBF6C8
:10338F0075F00AEA84E5F02430FAF7758201C0007F
:10339F0012082C758201120787D0007A02EA24FBEB
:1033AF004041EAC40354F8FB7C00BC10005031ECE0
:1033BF00C40354F8F582C002C003C004C00074F9FE
:1033CF00C0E0743FC0E07480C0E0C003121FF6E598
:1033DF008124FCF581D000D004D003D0020C80CA28
:1033EF000A80BA88027B007C40C002C003C004740C
:1033FF0003C0E075820112341DE58124FCF581754F
:10340F00820012082C123015850C81D00C22C00CB2
:10341F0085810CAA82A80C181818E6C40354F8FB6F
:10342F00E50C24FAF886040886050886068C828D3A
:10343F00838EF01235D9FF70030235BDC3EF648060
:10344F0094B0406D74B98FF063F08095F04062C016
:10345F0004C005C00674E02FC2D575F00830E7042C
:10346F00B2D5F404A430D50AF42401C5F0F4340025
:10347F00C5F02449FF743E35F0FC7D80EAC4035447
:10348F00F8F582C002C003C004C005C006C007C063
:10349F0004C005C003121FF6E58124FCF581D00698
:1034AF00D005D004D003D002D006D005D004023509
:1034BF00B48C828D838EF01235D9FFC3648094C192
:1034CF00406D74DA8FF063F08095F04062C004C0F5
:1034DF0005C00674D92FC2D575F00830E704B2D5F0
:1034EF00F404A430D50AF42401C5F0F43400C5F077
:1034FF002449FF743E35F0FC7D80EAC40354F8F58F
:10350F0082C002C003C004C005C006C007C004C00B
:10351F0005C003121FF6E58124FCF581D006D00506
:10352F00D004D003D002D006D005D0040235B48C1D
:10353F00828D838EF01235D9FFBF2E34EAC4035427
:10354F00F8F582C002C003C004C005C00674F1C004
:10355F00E0743FC0E07480C0E0C003121FF6E58145
:10356F0024FCF581D006D005D004D003D0028035DD
:10357F00BF4032EAC40354F8F582C002C003C0044E
:10358F00C005C00674E9C0E0743FC0E07480C0E0BD
:10359F00C003121FF6E58124FCF581D006D005D0BB
:1035AF0004D003D0020CBC00010D0A02343CD00C35
:0135BF0022E9
:103FF9000000000000000000494E205448452044BC
:1040090041524B2E2E2E0054484559204C55524BA7
:10401900004A525440484F4447455049472E4F5251
:104029004700434F4E54524F4C53004445414400BE
:08403900594F552057494E0074
:06003700E478FFF6D8FD9D
:100015007900E94400601B7A0090404178007593AF
:1000250000E493F2A308B800020593D9F4DAF27557
:0200350093FF37
:1035C00020F71030F6118883A88220F507F6A8832B
:0935D00075830022F280F7F0225D
:10003D007800E84400600A7900759300E4F309D86C
:10004D00FC7800E84400600C7900900000E4F0A317
:04005D00D8FCD9FAF8
:0D0008007581411235F5E5826003020003A9
:1035D90020F71430F6148883A88220F507E6A8831B
:1035E90075830022E280F7E49322E02275820022AB
:00000001FF
